:101E000011248FE594E09EBF8DBF84B714BE81FF7F
:101E1000EAD085E08EBD82E08BB988E18AB996E888
:101E200090BD90E199B981BD8EE081BDBD9A86E0FB
:101E300040E35CEF34E020E25DBD4CBD38BF08B646
:101E400002FEFDCF98B3922798BBA8958150A1F7C9
:101E5000C0E0D0E008E138E0F32EEE24E39445E062
:101E6000B42E51E1A52E13E0A2D0813491F49FD07D
:101E7000D82EA4D082E8D81203C084E094D090C0B9
:101E8000E1E8DE1203C084E08ED08AC083E08BD00C
:101E900087C0823419F484E19BD082C0853419F460
:101EA00085E096D07DC0853549F481D0C82F7FD09C
:101EB000D0E0D82BCC0FDD1F81D072C0863529F43D
:101EC00084E086D080E06FD06BC0843609F03FC0DC
:101ED0006ED06DD0982E6BD0C115F8E1DF0738F4C5
:101EE000FE0117BFE895C12CDD24D39403C0C12C9B
:101EF000DD24D3945CD0F60181936F019E12FACF5A
:101F0000C115F8E1DF0718F0FE0117BFE89556D0BC
:101F100007B600FCFDCFFE01A0E0B1E08C91119668
:101F20002C91119790E0922B0C01E7BEE8951124BB
:101F300032961296A03481E0B80781F7FE01B7BE51
:101F4000E89507B600FCFDCFA7BEE89529C0843709
:101F5000B1F42DD02CD0982E2AD030D0892CFE016F
:101F60006F018FEFC81AD80A84911DD08A94F601A8
:101F70008110F6CF21969A94C90DD11D11C08537D5
:101F800041F41CD08EE10FD083E90DD087E00BD057
:101F900007C0813521F401BDF1BC10D001C00ED0C5
:101FA00080E101D061CF5D9BFECF8CB908955F9B2E
:101FB000FECF5C9901C0A8958CB10895F8DF8032FE
:101FC00029F088E181BD88E081BDFFCF84E1EBCFBE
:101FD000CF93C82FECDFC150E9F7CF91EFCF98E155
:101FE00091BD81BD089588E181BD11BCEE27FF2719
:021FF000099452
:021FFE000404D9
:0400000300001E00DB
:00000001FF
