:103E0000112484B714BE81FFFDD085E0809381002A
:103E100082E08093C00088E18093C10096E0909397
:103E2000C20090E19093C400809360008EE0809384
:103E30006000259A86E020E33CEF91E03093850016
:103E40002093840096BBB09BFECF1D9AA89581500D
:103E5000A9F7C0E0D0E008E138E0F32EEE24E394C7
:103E600045E0B42E51E1A52E13E0A7D0813491F4A2
:103E7000A4D0D82EAED082E8D81203C084E096D069
:103E800092C0E1E8DE1203C084E090D08CC083E0F1
:103E90008DD089C0823419F484E1A7D084C08534E0
:103EA00019F485E0A2D07FC0853549F486D0C82FAB
:103EB00084D0D0E0D82BCC0FDD1F8BD074C08635DA
:103EC00029F484E092D080E071D06DC0843609F08E
:103ED0003FC073D072D0982E70D0C115F8E3DF07C1
:103EE00038F4FE0117BFE895C12CDD24D39403C03C
:103EF000C12CDD24D39461D0F60181936F019E1211
:103F0000FACFC115F8E3DF0718F0FE0117BFE895F7
:103F100060D007B600FCFDCFFE01A0E0B1E08C91BF
:103F200011962C91119790E0922B0C01E7BEE89529
:103F3000112432961296A03881E0B80781F7FE016D
:103F4000B7BEE89507B600FCFDCFA7BEE8952BC02D
:103F50008437B1F432D031D0982E2FD03AD0892C7A
:103F6000FE016F018FEFC81AD80A84911FD08A947E
:103F7000F6018110F6CF21969A94C90DD11D13C078
:103F8000853741F426D08EE111D084E90FD086E048
:103F90000DD009C0813531F400936000F0926000CB
:103FA00018D001C016D080E101D05FCF9091C00041
:103FB00095FFFCCF8093C60008958091C00087FFD5
:103FC000FCCF8091C00084FD01C0A8958091C600FF
:103FD0000895F3DF803239F088E18093600088E053
:103FE00080936000FFCF84E1E1CFCF93C82FE5DF5E
:103FF000C150E9F7CF91EDCFE0E6F0E098E1908392
:1040000080830895E0E6F0E088E180831082EE2767
:04401000FF270994E9
:023FFE000404B9
:0400000300003E00BB
:00000001FF
